{
  "_format": "hh-sol-artifact-1",
  "contractName": "UserStateContract",
  "sourceName": "contracts/UserStateContract .sol",
  "abi": [
    {
      "inputs": [
        {
          "internalType": "string",
          "name": "songId",
          "type": "string"
        }
      ],
      "name": "addFavoriteSong",
      "outputs": [],
      "stateMutability": "nonpayable",
      "type": "function"
    },
    {
      "inputs": [
        {
          "internalType": "string",
          "name": "songId",
          "type": "string"
        }
      ],
      "name": "addPublishedSong",
      "outputs": [],
      "stateMutability": "nonpayable",
      "type": "function"
    },
    {
      "inputs": [
        {
          "internalType": "string",
          "name": "songId",
          "type": "string"
        }
      ],
      "name": "addPurchasedSong",
      "outputs": [],
      "stateMutability": "nonpayable",
      "type": "function"
    },
    {
      "inputs": [
        {
          "internalType": "string",
          "name": "songId",
          "type": "string"
        },
        {
          "internalType": "uint256",
          "name": "songPrice",
          "type": "uint256"
        },
        {
          "internalType": "string",
          "name": "songName",
          "type": "string"
        },
        {
          "internalType": "string",
          "name": "songGenre",
          "type": "string"
        },
        {
          "internalType": "string",
          "name": "artist",
          "type": "string"
        },
        {
          "internalType": "string",
          "name": "ipfsHash",
          "type": "string"
        }
      ],
      "name": "addSongDetails",
      "outputs": [],
      "stateMutability": "nonpayable",
      "type": "function"
    },
    {
      "inputs": [
        {
          "internalType": "string",
          "name": "songId",
          "type": "string"
        }
      ],
      "name": "addWishListSong",
      "outputs": [],
      "stateMutability": "nonpayable",
      "type": "function"
    },
    {
      "inputs": [
        {
          "internalType": "string",
          "name": "songId",
          "type": "string"
        }
      ],
      "name": "getSongDetails",
      "outputs": [
        {
          "components": [
            {
              "internalType": "uint256",
              "name": "songPrice",
              "type": "uint256"
            },
            {
              "internalType": "string",
              "name": "songName",
              "type": "string"
            },
            {
              "internalType": "string",
              "name": "songGenre",
              "type": "string"
            },
            {
              "internalType": "string",
              "name": "artist",
              "type": "string"
            },
            {
              "internalType": "string",
              "name": "ipfsHash",
              "type": "string"
            }
          ],
          "internalType": "struct UserStateContract.Song",
          "name": "",
          "type": "tuple"
        }
      ],
      "stateMutability": "view",
      "type": "function"
    },
    {
      "inputs": [],
      "name": "getUserState",
      "outputs": [
        {
          "internalType": "string",
          "name": "",
          "type": "string"
        }
      ],
      "stateMutability": "view",
      "type": "function"
    },
    {
      "inputs": [],
      "name": "getUserStateFavoriteSongs",
      "outputs": [
        {
          "components": [
            {
              "internalType": "uint256",
              "name": "songPrice",
              "type": "uint256"
            },
            {
              "internalType": "string",
              "name": "songName",
              "type": "string"
            },
            {
              "internalType": "string",
              "name": "songGenre",
              "type": "string"
            },
            {
              "internalType": "string",
              "name": "artist",
              "type": "string"
            },
            {
              "internalType": "string",
              "name": "ipfsHash",
              "type": "string"
            }
          ],
          "internalType": "struct UserStateContract.Song[]",
          "name": "",
          "type": "tuple[]"
        }
      ],
      "stateMutability": "view",
      "type": "function"
    },
    {
      "inputs": [],
      "name": "getUserStatePublishedSongs",
      "outputs": [
        {
          "components": [
            {
              "internalType": "uint256",
              "name": "songPrice",
              "type": "uint256"
            },
            {
              "internalType": "string",
              "name": "songName",
              "type": "string"
            },
            {
              "internalType": "string",
              "name": "songGenre",
              "type": "string"
            },
            {
              "internalType": "string",
              "name": "artist",
              "type": "string"
            },
            {
              "internalType": "string",
              "name": "ipfsHash",
              "type": "string"
            }
          ],
          "internalType": "struct UserStateContract.Song[]",
          "name": "",
          "type": "tuple[]"
        }
      ],
      "stateMutability": "view",
      "type": "function"
    },
    {
      "inputs": [],
      "name": "getUserStatePurchasedSongs",
      "outputs": [
        {
          "components": [
            {
              "internalType": "uint256",
              "name": "songPrice",
              "type": "uint256"
            },
            {
              "internalType": "string",
              "name": "songName",
              "type": "string"
            },
            {
              "internalType": "string",
              "name": "songGenre",
              "type": "string"
            },
            {
              "internalType": "string",
              "name": "artist",
              "type": "string"
            },
            {
              "internalType": "string",
              "name": "ipfsHash",
              "type": "string"
            }
          ],
          "internalType": "struct UserStateContract.Song[]",
          "name": "",
          "type": "tuple[]"
        }
      ],
      "stateMutability": "view",
      "type": "function"
    },
    {
      "inputs": [],
      "name": "getUserStateWishList",
      "outputs": [
        {
          "components": [
            {
              "internalType": "uint256",
              "name": "songPrice",
              "type": "uint256"
            },
            {
              "internalType": "string",
              "name": "songName",
              "type": "string"
            },
            {
              "internalType": "string",
              "name": "songGenre",
              "type": "string"
            },
            {
              "internalType": "string",
              "name": "artist",
              "type": "string"
            },
            {
              "internalType": "string",
              "name": "ipfsHash",
              "type": "string"
            }
          ],
          "internalType": "struct UserStateContract.Song[]",
          "name": "",
          "type": "tuple[]"
        }
      ],
      "stateMutability": "view",
      "type": "function"
    },
    {
      "inputs": [
        {
          "internalType": "string",
          "name": "_userId",
          "type": "string"
        }
      ],
      "name": "setUserState",
      "outputs": [],
      "stateMutability": "nonpayable",
      "type": "function"
    },
    {
      "inputs": [
        {
          "internalType": "address",
          "name": "",
          "type": "address"
        }
      ],
      "name": "userStates",
      "outputs": [
        {
          "internalType": "string",
          "name": "userId",
          "type": "string"
        }
      ],
      "stateMutability": "view",
      "type": "function"
    }
  ],
  "bytecode": "0x608060405234801561001057600080fd5b506125ac806100206000396000f3fe608060405234801561001057600080fd5b50600436106100cf5760003560e01c80638ce4f1241161008c578063b3af2aa611610066578063b3af2aa6146101ec578063c900a77114610208578063cbdbf0f814610238578063db27adae14610256576100cf565b80638ce4f124146101965780638dc10e34146101b45780639a33b9e6146101d0576100cf565b80630ecc535f146100d457806337a599bb1461010457806339932aa1146101205780636e5a93321461013c57806382107a3f1461015a5780638594c12714610178575b600080fd5b6100ee60048036038101906100e99190611ea6565b610272565b6040516100fb919061229b565b60405180910390f35b61011e60048036038101906101199190611ecf565b610318565b005b61013a60048036038101906101359190611ecf565b61039c565b005b6101446103f5565b6040516101519190612279565b60405180910390f35b6101626108ba565b60405161016f9190612279565b60405180910390f35b610180610d7f565b60405161018d919061229b565b60405180910390f35b61019e610e50565b6040516101ab9190612279565b60405180910390f35b6101ce60048036038101906101c99190611ecf565b611315565b005b6101ea60048036038101906101e59190611ecf565b611399565b005b61020660048036038101906102019190611ecf565b61141d565b005b610222600480360381019061021d9190611ecf565b6114a1565b60405161022f91906122bd565b60405180910390f35b61024061176a565b60405161024d9190612279565b60405180910390f35b610270600480360381019061026b9190611f10565b611c2f565b005b60006020528060005260406000206000915090508060000180546102959061242f565b80601f01602080910402602001604051908101604052809291908181526020018280546102c19061242f565b801561030e5780601f106102e35761010080835404028352916020019161030e565b820191906000526020600020905b8154815290600101906020018083116102f157829003601f168201915b5050505050905081565b60008060003373ffffffffffffffffffffffffffffffffffffffff1673ffffffffffffffffffffffffffffffffffffffff16815260200190815260200160002090508060020182908060018154018082558091505060019003906000526020600020016000909190919091509080519060200190610397929190611d42565b505050565b806000803373ffffffffffffffffffffffffffffffffffffffff1673ffffffffffffffffffffffffffffffffffffffff16815260200190815260200160002060000190805190602001906103f1929190611d42565b5050565b606060008060003373ffffffffffffffffffffffffffffffffffffffff1673ffffffffffffffffffffffffffffffffffffffff1681526020019081526020016000209050600081600301805480602002602001604051908101604052809291908181526020016000905b8282101561050b57838290600052602060002001805461047e9061242f565b80601f01602080910402602001604051908101604052809291908181526020018280546104aa9061242f565b80156104f75780601f106104cc576101008083540402835291602001916104f7565b820191906000526020600020905b8154815290600101906020018083116104da57829003601f168201915b50505050508152602001906001019061045f565b5050505090506000815167ffffffffffffffff811115610554577f4e487b7100000000000000000000000000000000000000000000000000000000600052604160045260246000fd5b60405190808252806020026020018201604052801561058d57816020015b61057a611dc8565b8152602001906001900390816105725790505b50905060005b82518110156108b057836001018382815181106105d9577f4e487b7100000000000000000000000000000000000000000000000000000000600052603260045260246000fd5b60200260200101516040516105ee9190612262565b90815260200160405180910390206040518060a0016040529081600082015481526020016001820180546106219061242f565b80601f016020809104026020016040519081016040528092919081815260200182805461064d9061242f565b801561069a5780601f1061066f5761010080835404028352916020019161069a565b820191906000526020600020905b81548152906001019060200180831161067d57829003601f168201915b505050505081526020016002820180546106b39061242f565b80601f01602080910402602001604051908101604052809291908181526020018280546106df9061242f565b801561072c5780601f106107015761010080835404028352916020019161072c565b820191906000526020600020905b81548152906001019060200180831161070f57829003601f168201915b505050505081526020016003820180546107459061242f565b80601f01602080910402602001604051908101604052809291908181526020018280546107719061242f565b80156107be5780601f10610793576101008083540402835291602001916107be565b820191906000526020600020905b8154815290600101906020018083116107a157829003601f168201915b505050505081526020016004820180546107d79061242f565b80601f01602080910402602001604051908101604052809291908181526020018280546108039061242f565b80156108505780601f1061082557610100808354040283529160200191610850565b820191906000526020600020905b81548152906001019060200180831161083357829003601f168201915b505050505081525050828281518110610892577f4e487b7100000000000000000000000000000000000000000000000000000000600052603260045260246000fd5b602002602001018190525080806108a890612461565b915050610593565b5080935050505090565b606060008060003373ffffffffffffffffffffffffffffffffffffffff1673ffffffffffffffffffffffffffffffffffffffff1681526020019081526020016000209050600081600501805480602002602001604051908101604052809291908181526020016000905b828210156109d05783829060005260206000200180546109439061242f565b80601f016020809104026020016040519081016040528092919081815260200182805461096f9061242f565b80156109bc5780601f10610991576101008083540402835291602001916109bc565b820191906000526020600020905b81548152906001019060200180831161099f57829003601f168201915b505050505081526020019060010190610924565b5050505090506000815167ffffffffffffffff811115610a19577f4e487b7100000000000000000000000000000000000000000000000000000000600052604160045260246000fd5b604051908082528060200260200182016040528015610a5257816020015b610a3f611dc8565b815260200190600190039081610a375790505b50905060005b8251811015610d755783600101838281518110610a9e577f4e487b7100000000000000000000000000000000000000000000000000000000600052603260045260246000fd5b6020026020010151604051610ab39190612262565b90815260200160405180910390206040518060a001604052908160008201548152602001600182018054610ae69061242f565b80601f0160208091040260200160405190810160405280929190818152602001828054610b129061242f565b8015610b5f5780601f10610b3457610100808354040283529160200191610b5f565b820191906000526020600020905b815481529060010190602001808311610b4257829003601f168201915b50505050508152602001600282018054610b789061242f565b80601f0160208091040260200160405190810160405280929190818152602001828054610ba49061242f565b8015610bf15780601f10610bc657610100808354040283529160200191610bf1565b820191906000526020600020905b815481529060010190602001808311610bd457829003601f168201915b50505050508152602001600382018054610c0a9061242f565b80601f0160208091040260200160405190810160405280929190818152602001828054610c369061242f565b8015610c835780601f10610c5857610100808354040283529160200191610c83565b820191906000526020600020905b815481529060010190602001808311610c6657829003601f168201915b50505050508152602001600482018054610c9c9061242f565b80601f0160208091040260200160405190810160405280929190818152602001828054610cc89061242f565b8015610d155780601f10610cea57610100808354040283529160200191610d15565b820191906000526020600020905b815481529060010190602001808311610cf857829003601f168201915b505050505081525050828281518110610d57577f4e487b7100000000000000000000000000000000000000000000000000000000600052603260045260246000fd5b60200260200101819052508080610d6d90612461565b915050610a58565b5080935050505090565b60606000803373ffffffffffffffffffffffffffffffffffffffff1673ffffffffffffffffffffffffffffffffffffffff1681526020019081526020016000206000018054610dcd9061242f565b80601f0160208091040260200160405190810160405280929190818152602001828054610df99061242f565b8015610e465780601f10610e1b57610100808354040283529160200191610e46565b820191906000526020600020905b815481529060010190602001808311610e2957829003601f168201915b5050505050905090565b606060008060003373ffffffffffffffffffffffffffffffffffffffff1673ffffffffffffffffffffffffffffffffffffffff1681526020019081526020016000209050600081600201805480602002602001604051908101604052809291908181526020016000905b82821015610f66578382906000526020600020018054610ed99061242f565b80601f0160208091040260200160405190810160405280929190818152602001828054610f059061242f565b8015610f525780601f10610f2757610100808354040283529160200191610f52565b820191906000526020600020905b815481529060010190602001808311610f3557829003601f168201915b505050505081526020019060010190610eba565b5050505090506000815167ffffffffffffffff811115610faf577f4e487b7100000000000000000000000000000000000000000000000000000000600052604160045260246000fd5b604051908082528060200260200182016040528015610fe857816020015b610fd5611dc8565b815260200190600190039081610fcd5790505b50905060005b825181101561130b5783600101838281518110611034577f4e487b7100000000000000000000000000000000000000000000000000000000600052603260045260246000fd5b60200260200101516040516110499190612262565b90815260200160405180910390206040518060a00160405290816000820154815260200160018201805461107c9061242f565b80601f01602080910402602001604051908101604052809291908181526020018280546110a89061242f565b80156110f55780601f106110ca576101008083540402835291602001916110f5565b820191906000526020600020905b8154815290600101906020018083116110d857829003601f168201915b5050505050815260200160028201805461110e9061242f565b80601f016020809104026020016040519081016040528092919081815260200182805461113a9061242f565b80156111875780601f1061115c57610100808354040283529160200191611187565b820191906000526020600020905b81548152906001019060200180831161116a57829003601f168201915b505050505081526020016003820180546111a09061242f565b80601f01602080910402602001604051908101604052809291908181526020018280546111cc9061242f565b80156112195780601f106111ee57610100808354040283529160200191611219565b820191906000526020600020905b8154815290600101906020018083116111fc57829003601f168201915b505050505081526020016004820180546112329061242f565b80601f016020809104026020016040519081016040528092919081815260200182805461125e9061242f565b80156112ab5780601f10611280576101008083540402835291602001916112ab565b820191906000526020600020905b81548152906001019060200180831161128e57829003601f168201915b5050505050815250508282815181106112ed577f4e487b7100000000000000000000000000000000000000000000000000000000600052603260045260246000fd5b6020026020010181905250808061130390612461565b915050610fee565b5080935050505090565b60008060003373ffffffffffffffffffffffffffffffffffffffff1673ffffffffffffffffffffffffffffffffffffffff16815260200190815260200160002090508060030182908060018154018082558091505060019003906000526020600020016000909190919091509080519060200190611394929190611d42565b505050565b60008060003373ffffffffffffffffffffffffffffffffffffffff1673ffffffffffffffffffffffffffffffffffffffff16815260200190815260200160002090508060040182908060018154018082558091505060019003906000526020600020016000909190919091509080519060200190611418929190611d42565b505050565b60008060003373ffffffffffffffffffffffffffffffffffffffff1673ffffffffffffffffffffffffffffffffffffffff1681526020019081526020016000209050806005018290806001815401808255809150506001900390600052602060002001600090919091909150908051906020019061149c929190611d42565b505050565b6114a9611dc8565b6000803373ffffffffffffffffffffffffffffffffffffffff1673ffffffffffffffffffffffffffffffffffffffff168152602001908152602001600020600101826040516114f89190612262565b90815260200160405180910390206040518060a00160405290816000820154815260200160018201805461152b9061242f565b80601f01602080910402602001604051908101604052809291908181526020018280546115579061242f565b80156115a45780601f10611579576101008083540402835291602001916115a4565b820191906000526020600020905b81548152906001019060200180831161158757829003601f168201915b505050505081526020016002820180546115bd9061242f565b80601f01602080910402602001604051908101604052809291908181526020018280546115e99061242f565b80156116365780601f1061160b57610100808354040283529160200191611636565b820191906000526020600020905b81548152906001019060200180831161161957829003601f168201915b5050505050815260200160038201805461164f9061242f565b80601f016020809104026020016040519081016040528092919081815260200182805461167b9061242f565b80156116c85780601f1061169d576101008083540402835291602001916116c8565b820191906000526020600020905b8154815290600101906020018083116116ab57829003601f168201915b505050505081526020016004820180546116e19061242f565b80601f016020809104026020016040519081016040528092919081815260200182805461170d9061242f565b801561175a5780601f1061172f5761010080835404028352916020019161175a565b820191906000526020600020905b81548152906001019060200180831161173d57829003601f168201915b5050505050815250509050919050565b606060008060003373ffffffffffffffffffffffffffffffffffffffff1673ffffffffffffffffffffffffffffffffffffffff1681526020019081526020016000209050600081600401805480602002602001604051908101604052809291908181526020016000905b828210156118805783829060005260206000200180546117f39061242f565b80601f016020809104026020016040519081016040528092919081815260200182805461181f9061242f565b801561186c5780601f106118415761010080835404028352916020019161186c565b820191906000526020600020905b81548152906001019060200180831161184f57829003601f168201915b5050505050815260200190600101906117d4565b5050505090506000815167ffffffffffffffff8111156118c9577f4e487b7100000000000000000000000000000000000000000000000000000000600052604160045260246000fd5b60405190808252806020026020018201604052801561190257816020015b6118ef611dc8565b8152602001906001900390816118e75790505b50905060005b8251811015611c25578360010183828151811061194e577f4e487b7100000000000000000000000000000000000000000000000000000000600052603260045260246000fd5b60200260200101516040516119639190612262565b90815260200160405180910390206040518060a0016040529081600082015481526020016001820180546119969061242f565b80601f01602080910402602001604051908101604052809291908181526020018280546119c29061242f565b8015611a0f5780601f106119e457610100808354040283529160200191611a0f565b820191906000526020600020905b8154815290600101906020018083116119f257829003601f168201915b50505050508152602001600282018054611a289061242f565b80601f0160208091040260200160405190810160405280929190818152602001828054611a549061242f565b8015611aa15780601f10611a7657610100808354040283529160200191611aa1565b820191906000526020600020905b815481529060010190602001808311611a8457829003601f168201915b50505050508152602001600382018054611aba9061242f565b80601f0160208091040260200160405190810160405280929190818152602001828054611ae69061242f565b8015611b335780601f10611b0857610100808354040283529160200191611b33565b820191906000526020600020905b815481529060010190602001808311611b1657829003601f168201915b50505050508152602001600482018054611b4c9061242f565b80601f0160208091040260200160405190810160405280929190818152602001828054611b789061242f565b8015611bc55780601f10611b9a57610100808354040283529160200191611bc5565b820191906000526020600020905b815481529060010190602001808311611ba857829003601f168201915b505050505081525050828281518110611c07577f4e487b7100000000000000000000000000000000000000000000000000000000600052603260045260246000fd5b60200260200101819052508080611c1d90612461565b915050611908565b5080935050505090565b60008060003373ffffffffffffffffffffffffffffffffffffffff1673ffffffffffffffffffffffffffffffffffffffff16815260200190815260200160002090506040518060a00160405280878152602001868152602001858152602001848152602001838152508160010188604051611caa9190612262565b9081526020016040518091039020600082015181600001556020820151816001019080519060200190611cde929190611d42565b506040820151816002019080519060200190611cfb929190611d42565b506060820151816003019080519060200190611d18929190611d42565b506080820151816004019080519060200190611d35929190611d42565b5090505050505050505050565b828054611d4e9061242f565b90600052602060002090601f016020900481019282611d705760008555611db7565b82601f10611d8957805160ff1916838001178555611db7565b82800160010185558215611db7579182015b82811115611db6578251825591602001919060010190611d9b565b5b509050611dc49190611df7565b5090565b6040518060a0016040528060008152602001606081526020016060815260200160608152602001606081525090565b5b80821115611e10576000816000905550600101611df8565b5090565b6000611e27611e2284612310565b6122df565b905082815260208101848484011115611e3f57600080fd5b611e4a8482856123ed565b509392505050565b600081359050611e6181612548565b92915050565b600082601f830112611e7857600080fd5b8135611e88848260208601611e14565b91505092915050565b600081359050611ea08161255f565b92915050565b600060208284031215611eb857600080fd5b6000611ec684828501611e52565b91505092915050565b600060208284031215611ee157600080fd5b600082013567ffffffffffffffff811115611efb57600080fd5b611f0784828501611e67565b91505092915050565b60008060008060008060c08789031215611f2957600080fd5b600087013567ffffffffffffffff811115611f4357600080fd5b611f4f89828a01611e67565b9650506020611f6089828a01611e91565b955050604087013567ffffffffffffffff811115611f7d57600080fd5b611f8989828a01611e67565b945050606087013567ffffffffffffffff811115611fa657600080fd5b611fb289828a01611e67565b935050608087013567ffffffffffffffff811115611fcf57600080fd5b611fdb89828a01611e67565b92505060a087013567ffffffffffffffff811115611ff857600080fd5b61200489828a01611e67565b9150509295509295509295565b600061201d838361213d565b905092915050565b600061203082612350565b61203a8185612373565b93508360208202850161204c85612340565b8060005b8581101561208857848403895281516120698582612011565b945061207483612366565b925060208a01995050600181019050612050565b50829750879550505050505092915050565b60006120a58261235b565b6120af8185612384565b93506120bf8185602086016123fc565b6120c881612537565b840191505092915050565b60006120de8261235b565b6120e88185612395565b93506120f88185602086016123fc565b61210181612537565b840191505092915050565b60006121178261235b565b61212181856123a6565b93506121318185602086016123fc565b80840191505092915050565b600060a0830160008301516121556000860182612253565b506020830151848203602086015261216d828261209a565b91505060408301518482036040860152612187828261209a565b915050606083015184820360608601526121a1828261209a565b915050608083015184820360808601526121bb828261209a565b9150508091505092915050565b600060a0830160008301516121e06000860182612253565b50602083015184820360208601526121f8828261209a565b91505060408301518482036040860152612212828261209a565b9150506060830151848203606086015261222c828261209a565b91505060808301518482036080860152612246828261209a565b9150508091505092915050565b61225c816123e3565b82525050565b600061226e828461210c565b915081905092915050565b600060208201905081810360008301526122938184612025565b905092915050565b600060208201905081810360008301526122b581846120d3565b905092915050565b600060208201905081810360008301526122d781846121c8565b905092915050565b6000604051905081810181811067ffffffffffffffff8211171561230657612305612508565b5b8060405250919050565b600067ffffffffffffffff82111561232b5761232a612508565b5b601f19601f8301169050602081019050919050565b6000819050602082019050919050565b600081519050919050565b600081519050919050565b6000602082019050919050565b600082825260208201905092915050565b600082825260208201905092915050565b600082825260208201905092915050565b600081905092915050565b60006123bc826123c3565b9050919050565b600073ffffffffffffffffffffffffffffffffffffffff82169050919050565b6000819050919050565b82818337600083830152505050565b60005b8381101561241a5780820151818401526020810190506123ff565b83811115612429576000848401525b50505050565b6000600282049050600182168061244757607f821691505b6020821081141561245b5761245a6124d9565b5b50919050565b600061246c826123e3565b91507fffffffffffffffffffffffffffffffffffffffffffffffffffffffffffffffff82141561249f5761249e6124aa565b5b600182019050919050565b7f4e487b7100000000000000000000000000000000000000000000000000000000600052601160045260246000fd5b7f4e487b7100000000000000000000000000000000000000000000000000000000600052602260045260246000fd5b7f4e487b7100000000000000000000000000000000000000000000000000000000600052604160045260246000fd5b6000601f19601f8301169050919050565b612551816123b1565b811461255c57600080fd5b50565b612568816123e3565b811461257357600080fd5b5056fea2646970667358221220a9320f0f6fccf53da9d6dfb4289c6f3928a318ae009ae553a3abff934a56b52164736f6c63430008000033",
  "linkReferences": {},
  "deployedLinkReferences": {}
}